:100000000C94D60B0C94FE0B0C94FE0B0C94E60D8A
:100010000C94E60D0C94E60D0C94FE0B0C94FE0B68
:100020000C94FE0B0C94FE0B0C94FE0B0C94FE0B2C
:100030000C94FE0B0C94FE0B0C94FE0B0C94FE0B1C
:100040000C9489200C94FE0B0C94061A0C94E01965
:100050000C94FE0B0C94FE0B0C94FE0B0C94FE0BFC
:100060000C94FE0B0C94FE0B12295829C2299529D9
:10007000A52AF92A502BA12BA62BAB2BCE2B102C6B
:10008000CF2CE02C472E7F2F6318B01886188118CC
:100090009A186118A51808000000BE922449123E63
:1000A000ABAAAA2ABECDCCCC4C3E00000080BEAB91
:1000B000AAAAAA3E00000000BF000000803F000086
:1000C000000000084178D3BB4387D1133D190E3C93
:1000D000C3BD4282AD2B3E68EC8276BED98FE1A9CA
:1000E0003E4C80EFFFBE01C4FF7F3F0000000000D8
:1000F00007634236B79BD8A71A39685618AEBAAB11
:10010000558C1D3CB7CC5763BD6DEDFD753EF617A4
:100110007231BF000000803F0000000000000000BE
:100120000000000000000000000001F800000000D6
:10013000000000000000000000007FF80000000048
:10014000000000000000000031FFFFF80000000088
:1001500000000000000000003FFFFFF80003000067
:1001600000000000018000001FFFFFF0007F000082
:10017000000000001F8000000FFFFFF001FE0000E4
:1001800000000000FF00000000FFFFF001FC000085
:10019000000000007F000000000FFFE001FC0000F5
:1001A000000000007E0000000007FFE001F80000F2
:1001B00000000000FE00000000007FC003F8000007
:1001C00000000000FC00000000001FC003F0000061
:1001D00000000001FC00000000003F8007F000006C
:1001E00000000001F800000000003F8007F0000060
:1001F00000000003F800000000003F0007E00000DE
:1002000002018043F800000000007F300FE6001C70
:100210003E1F87C3F38007E000007EFC0FDF807E77
:10022000FE7F1FC7F7C03FFE0000FFFE1FFFC3FF9A
:10023000FE7F1FC7FFF0FFFE0000FFFF5FFFEFFF25
:10024000FC7E1F8FFFF7FFFC0001FFFFFFFFFFF7A2
:10025000FCFE3F8FFFFFFC780001FFFFFFFFFFF177
:10026000F8FE3F1FFFFFF8F80001FBFF3F7FE7E3C9
:10027000F8FC7F1FDFF3F8F00003F8FE7F1FCFE3E9
:10028000F9FC7E1F8FE3F1F00003F1FC7E1F8FC3AA
:10029000F1F87E3F8FE7F7E0000FF3FDFE7FBFCF61
:1002A000F7F9FEFF3FCFEFC0000FE7F9FCFF3FDF9C
:1002B000E7FBFCFF3FDFFF00000FE3F9FC7F3F8F10
:1002C000E7F1FCFF3F8FFE00000FE3F1FC7F3F8F63
:1002D000C7F1F87E1F8FFC00000FC3F1F87E3F0FBF
:1002E000C7E1F8FE3F9FF000001FC7F3F8FE7F1F35
:1002F000CFE3F8FC3F1FE000001F87E3F0FC7E1F08
:100300008FC3F1FC7F1FC038003F8FE3F1FC7E3FBD
:10031000BFC7F7F87E3F81F8003F8FC7F1FCFE7F33
:100320007FCFEFF8FE3F0FF8003F3FC7E7F8FDFF34
:10033000FFBFFFFBFC7F7FE0007FFF8FFFF0FFFF31
:10034000FFFFFFFFFC7FFF00007FFE07FFC0FFFFF6
:10035000DFFFFBFFE07FFC00003FF003FE007F7F3C
:100360008FE7F1FF803FF000001FC001F8003EFE64
:1003700007C3C0FC001F8000000E0001C00038FE53
:1003800007018070000E000000000000000001FE68
:10039000000000000000000000000000000001FC60
:1003A000000000000000000000000000000001FC50
:1003B000000000000000000000000000000003FC3E
:1003C000000000000000000000000000000003FC2E
:1003D000000000000000000000000000000003FC1E
:1003E000000000000000000000000000000007F016
:1003F00000000000000000000000000000000000FD
:10040000000000000000000041545A0041545A000E
:100410004154453D30002D2D2D2D2D2D2D2D2D2DD3
:100420002D2D2D2D2D2D00415449002D2D2D2D2DFF
:100430002D2D2D2D2D2D2D2D2D2D2D004F4B210012
:10044000436F756C646E27742066696E6420424C3D
:10045000452C206D616B652073757265206974276A
:100460007320696E20436F4D6D616E44206D6F6423
:1004700065202620636865636B20776972696E6703
:100480003F002C0041542B47415454434841523DB6
:10049000002C0041542B47415454434841523D00E5
:1004A0002C0041542B47415454434841523D002CA9
:1004B0000041542B47415454434841523D002C00C5
:1004C00041542B47415454434841523D002C004174
:1004D000542B47415454434841523D002C00415451
:1004E0002B47415454434841523D002C0041542B6A
:1004F00047415454434841523D002C0041542B473E
:10050000415454434841523D002C0041542B474133
:100510005454434841523D002C0041542B47415410
:1005200054434841523D00001815FFFC0B02520590
:1005300037207FFD0CFC0BFD000000050000020BC6
:100540000B060200C0C0C0C0C0C0C0C00000C006D2
:100550000505080106CCCCCCCCCC0A0B160B01004F
:100560000980198019007FC0330032003600FF0077
:1005700064006C004C00080E0E0A01FE083E7ECBA3
:10058000C8F87E0F0BCBEB7E08080F0B161101008D
:100590003C20EE60C640C6C0E7807D7C03EE02C60C
:1005A00006C604EE087C0B0B160D01003E0077001A
:1005B000630077003C007CC0EEC0C7C0C3C0F3C07E
:1005C0003FE0020505070206C0C0C0C0C0030E0E12
:1005D0000601FD606060E0C0C0C0C0C0C0E06060F7
:1005E00060030E0E0702FDC0C0C060606060606006
:1005F0006060E0C0C00605050A02057830FC30786E
:100600000909121003000800080008000800FF8014
:1006100008000800080008000304040501FE6060EB
:10062000C0C0040202060103F0F00202020502004B
:10063000C0C0050C0C0701FF1818103030202060D6
:100640006040C0C0080B0B0901003C66C3C3C3C3B4
:10065000C3C3C3663C040B0B09020030F0F030301A
:10066000303030303030080B0B0901003E77630327
:1006700007061E3C70E0FF080B0B0901007CEEC66C
:10068000063C0603C3C77E3C080B0B0901000E1E87
:100690001E366666C6FFFF0606080B0B090100FE44
:1006A000C0C0C0FEE70303C7FE7C080B0B090100B6
:1006B0003C7643C0DEE7C3C3C3663C080B0B0901AD
:1006C00000FF0307060E0C1C18383870080B0B09C6
:1006D00001007EE7C3E73C66C3C3C3E73C080B0BDE
:1006E0000901003C66C3C3E77F0303C66E3C0208F2
:1006F00008050200C0C000000000C0C0030A0A05CF
:1007000001FE6060000000006060C0C00A081010B8
:100710000301004003800C007000800070000E0098
:1007200001C00A0408100303FFC000000000FFC05E
:100730000A0810100301800060001C00038000C044
:1007400007001800E000070B0B09010078EE860691
:100750000C1830303000300F0E1C1101FD07E01E68
:1007600078301C67ECEEE6CC66CC66CC66CC66EFE7
:10077000FC67B830001C2007E00B0B160B00000EC6
:10078000000E000F001B001B80398031803FC07FAE
:10079000C060E0E060090B160B0100FE00C700C35B
:1007A00000C300C700FC00C300C180C180C380FE3D
:1007B000000A0B160C01001F00738061C0C000C04E
:1007C00000C000C000C1C061C073801F00090B16CB
:1007D0000B0100FC00CF00C300C180C180C180C1FB
:1007E00080C180C300CF00FC00080B0B0A0100FF92
:1007F000C0C0C0C0FFC0C0C0C0FF080B0B090100D3
:10080000FFC0C0C0C0FEC0C0C0C0C00A0B160C01F3
:10081000001F003BC060C0E000C000C3C0C0C0C03B
:10082000C060C039C01FC0090B160B0100C180C1D8
:1008300080C180C180C180FF80C180C180C180C172
:1008400080C180020B0B040100C0C0C0C0C0C0C08A
:10085000C0C0C0C0080B0B0A01000303030303035D
:1008600003C3C3FE7C090B160B0100C300C700CEF7
:1008700000DC00F800F800DC00CE00CE00C700C3AA
:1008800080080B0B090100C0C0C0C0C0C0C0C0C000
:10089000FFFF0D0B160F0100F078F078F8F8D8D8AC
:1008A000D8D8DDD8CD98CD98CF98C718C7180A0BDF
:1008B000160C0100F0C0F0C0F8C0D8C0DCC0CCC03D
:1008C000CEC0C6C0C7C0C3C0C3C00B0B160D01004D
:1008D0001F007BC060C0C060C060C060C060C060FE
:1008E00060C07BC01F00080B0B0A0100FCC7C3C31C
:1008F000C7FEC0C0C0C0C00C0B160E01001F007B9D
:100900008060C0C060C060C060C060C06060C07B0C
:10091000C01FF0090B160B0100FE00C780C180C18B
:1009200080C300FE00C300C180C180C180C18009B6
:100930000B160B01003E007700C180E000F8007F3D
:10094000000F800180C18077003E00090B160B016B
:1009500000FF800C000C000C000C000C000C000CC4
:10096000000C000C000C000A0B160C0100C0C0C0EB
:10097000C0C0C0C0C0C0C0C0C0C0C0C0C0E1C073A3
:10098000803E000B0B160C0000E060606070E030F1
:10099000C031C0398019801F801F000F000E001069
:1009A0000B16100000E18763C663C663C677CE36B8
:1009B0006C366C366C3C3C1C381C380B0B160B0030
:1009C0000070C031C03B801F000E000E001F001BD6
:1009D00000338071C0E0E00A0B160A0000E1C0712C
:1009E0008033803B001F001E000C000C000C000C2C
:1009F000000C00080B0B0A0100FF07060E1C18383C
:100A00007060C0FF040E0E0601FDF0C0C0C0C0C083
:100A1000C0C0C0C0C0C0C0F0050C0C0701FF80C042
:100A2000C0406060203030101018040E0E0701FD29
:100A3000F0303030303030303030303030F0080A84
:100A40000A1004001018182424244242818108014D
:100A5000010800FEFF030303040009C0402007084B
:100A6000080901003C6E067EE6C6EE76080B0B0A0E
:100A70000100C0C0C0DCF6C7C3C3C3E6DC0708087A
:100A80000901003C6EC6C0C0C6EE3C080B0B0A0153
:100A9000000303033B6FE3C3C3C3673B07080809B5
:100AA00001003C6EC6FEC0C66E3C050B0B07010084
:100AB000383030F830303030303030080B0B0A012D
:100AC000FD3B6FE3C3C3C3673B03673C070B0B09E5
:100AD0000100C0C0C0DCEEC6C6C6C6C6C6020B0B4F
:100AE000040100C0C000C0C0C0C0C0C0C0C0030E70
:100AF0000E0501FD606000606060606060606060C5
:100B0000E0E0070B0B090100C0C0C0CEDCD8F0D874
:100B1000DCCCC6020B0B040100C0C0C0C0C0C0C00A
:100B2000C0C0C0C00C08100E0100DCE0EF70C63081
:100B3000C630C630C630C630C630070808090100C6
:100B4000DCEEC6C6C6C6C6C60808080A01003C6672
:100B5000C3C3C3C3663C080B0B0A01FDDCE6C3C379
:100B6000C3C7F6DCC0C0C0080B0B0A01FD3B67C35E
:100B7000C3C3C36F3B030303050808070100D8F094
:100B8000C0C0C0C0C0C00708080901007CEEC0F8A2
:100B90001EC6EE7C060A0A0801003030FC303030F8
:100BA0003030381C070808090100C6C6C6C6C6C6CC
:100BB000EE76080808090000E3636776363C1C1CE3
:100BC0000D08100E0000E718679867986FB03DF0A9
:100BD0003CF03CF038E008080809000063763E1C51
:100BE0003C3E67E3080B0B0900FDE3637736363EB6
:100BF0001C1C181838060808080100FC0C1838706E
:100C000060C0FC060F0F0801FC1C3830303030701B
:100C1000C06030303030301C0110100502FC808084
:100C20008080808080808080808080808080060FAF
:100C30000F0801FCE07030303030180C18303030C4
:100C40003030F008020209000379DFFF001F1AFEAE
:100C5000FB0E0374075F207FFC10FB0EFC000000FE
:100C6000060000030E0E080300E0E0E0E0E0E0E034
:100C7000E0E0E00000E0E00806060A0108E7676738
:100C80006767670C0E1C0E0100066006600C603F73
:100C9000F03FF018C019801980FFE0FFE033003307
:100CA00000630066000A11220C01FE04001F007F91
:100CB000807780E5C0E400FC007E001F8007C0054F
:100CC000C0E5C0E5C07F803F0004000400120E2A8A
:100CD0001401003C04007E0C00C31800C31000C3C4
:100CE0003000E760007E670018CD800098C0019852
:100CF000C00318C00318C0060F800C07000E0E1C9E
:100D00001001001F007F8071C071C073803F001E02
:100D1000007E38F730E3B0E1F0E0E07FF01FBC0385
:100D20000606080308E0C0C0C0C0C00411110802D4
:100D3000FD30707060E0E0E0E0E0E0E0E0E0607096
:100D400070300411110802FDC0C0E0E060607070F6
:100D50007070706060E0E0C0C00807070C020766B2
:100D60003C18FF183C660C0C18140400020002002A
:100D7000020002000200FFF0FFF002000200020089
:100D8000020002000405050601FE707060E0C00567
:100D90000303070104F8F8F8030303060200E0E088
:100DA000E0060F0F0901FF0C0C0C0C18181830305E
:100DB0003060606060C00A0E1C0B01001E007F00E6
:100DC0006180E1C0E1C0E1C0E1C0E1C0E1C0E1C0DB
:100DD000E1C061807F801E00060E0E0B02001C7CAD
:100DE000FCDC1C1C1C1C1C1C1C1C1C1C0A0E1C0BD4
:100DF00001001F007F8061C0E1C001C001C003800D
:100E000007800F001E0038007000FFC0FFC00A0EF0
:100E10001C0B01003E007F00E380038003801F0065
:100E20001F00038001C001C0E1C0F3807F003E00CD
:100E30000B0E1C0B010007800F800F801B803B8076
:100E4000338073806380E380FFE0FFE003800380F2
:100E500003800A0E1C0B0100FF80FF80E000E00011
:100E6000E000FF00FF80E18001C001C0E1C0E3803D
:100E70007F003E000A0E1C0B01001E003F806180B7
:100E80006000E000DF00FF80E180E1C0E1C0E1C080
:100E900061807F801E000A0E1C0B0100FFC0FFC096
:100EA00001C0038003800780070007000E000E00CA
:100EB0001C001C003C0038000A0E1C0B01003F0007
:100EC0007F80E1C0E1C0E1807F003F007380E1C02E
:100ED000E1C0E1C0E1C07F803F000A0E1C0B0100B1
:100EE0001E007F00E180E180E1C0E1C0F3C07FC06F
:100EF00019C00180E18063807F003E00030A0A0779
:100F00000300E0E0E000000000E0E0E0040C0C067C
:100F100001FE707070000000007060E0C0C00C0A3C
:100F200014140401001000E003801C00E000C00065
:100F30003800070001C000300C050A140403FFF05C
:100F4000FFF00000FFF0FFF00C0A14140401800011
:100F500070001C0003800070003001C00E003800DB
:100F6000C000090E1C0B01003E007F00C3804380BF
:100F70000380070006000C0018001800180000008D
:100F8000180018001312361501FC01F8000FFE00BE
:100F90001E07803803C071FDC073FCE0E71CE0E76A
:100FA0001CE0E71CE0E71CE0E71CE0E73CC073FF47
:100FB000C071E7803800001E04000FFC0003FC0035
:100FC0000E0E1C0E00000780078007C00FC00EC069
:100FD0001CE01CE01C6038703FF03FF8703870383F
:100FE000E01C0B0E1C0D0100FF00FF80E1C0E1C002
:100FF000E1C0E380FF00FF80E0C0E0E0E0E0E0E08F
:10100000FFC0FF000D0E1C0F01000F803FE070704D
:101010006070E000E000E000E000E000E078607078
:1010200070F03FE00F800C0E1C0E0100FF00FFC0AF
:10103000E1E0E0E0E070E070E070E070E070E0704F
:10104000E0E0E1E0FFC0FF000A0E1C0C0100FFC061
:10105000FFC0E000E000E000E000FF80FF80E00073
:10106000E000E000E000FFC0FFC0090E1C0B010023
:10107000FF80FF80E000E000E000E000FF80FF80F4
:10108000E000E000E000E000E000E0000D0E1C0FDA
:1010900001000FC01FF038387038E000E000E1F8C0
:1010A000E1F8E038E038703878383FF80FF00C0E8F
:1010B0001C0E0100E070E070E070E070E070E07025
:1010C000FFF0FFF0E070E070E070E070E070E07062
:1010D000030E0E050100E0E0E0E0E0E0E0E0E0E02B
:1010E000E0E0E0E00A0E1C0C010001C001C001C0FC
:1010F00001C001C001C001C001C001C0E1C0E1C028
:10110000F3C07F803E000B0E1C0D0100E1E0E3C048
:10111000E380E700EE00FC00FC00FE00EE00E700CC
:10112000E780E3C0E1C0E0E00A0E1C0B0100E00034
:10113000E000E000E000E000E000E000E000E000AF
:10114000E000E000E000FFC0FFC0100E1C12010034
:10115000F81FF81FFC3FFC3FFC37EC77EE77EE679B
:10116000E6E7E7E7E7C7E3C7E3C7E3870D0E1C0F32
:101170000100F038F838F838FC38EE38EE38E73847
:10118000E738E3B8E3B8E1F8E1F8E0F8E0F80E0E8C
:101190001C1001000FC03FF070706038E018E01CB8
:1011A000E01CE01CE01CE018603870703FF00FC0DD
:1011B0000B0E1C0D0100FF00FFC0E1C0E0E0E0E00D
:1011C000E0E0E1C0FFC0FF00E000E000E000E00080
:1011D000E0000F0E1C1101000FC03FE0707060387E
:1011E000E018E01CE01CE01CE01CE018603870789F
:1011F0003FFE0FFE0B0E1C0D0100FF80FFC0E0E064
:10120000E0E0E0E0E0E0FF80FFC0E1C0E0E0E0E03F
:10121000E0E0E0E0E0600C0E1C0E01001F803FC02B
:1012200060E0E0E0E000FC007F801FE003E0007091
:10123000E070E0607FC01F800C0E1C0E0100FFF00C
:10124000FFF00E000E000E000E000E000E000E004D
:101250000E000E000E000E000E000C0E1C0E010003
:10126000E070E070E070E070E070E070E070E070FE
:10127000E070E070E07070E03FC01F800E0E1C0F49
:101280000000F01C701C703C3838383838701C7006
:101290001C701EE00EE00FC007C007C00780140ED0
:1012A0002A140000F0F0F070F0E070F0E071F8E067
:1012B00071F8E03999C03999C03B9DC03B9DC01B76
:1012C0000D801F0F801F0F801F0F800E07000C0E58
:1012D0001C0E0100E07070E078E039C01F801F0034
:1012E0000F000F001F803BC039C070E0E0F0E070DD
:1012F0000C0E1C0D0000F07070F038E038E01DC0DE
:101300001DC00F800F00070007000700070007003F
:1013100007000B0E1C0D01007FE07FE001E003C021
:10132000038007800F001E001E003C007800F800BC
:10133000FFE0FFE00512120802FCF8F8E0E0E0E050
:10134000E0E0E0E0E0E0E0E0E0E0F8F8060F0F09C0
:1013500001FFC0C0606060303030101818180C0CED
:101360000C0512120802FCF8F838383838383838CA
:1013700038383838383838F8F80A0C181405000CA2
:10138000000C000C0012001200330021002100406C
:10139000804080C0C080400A02040A00FDFFC0FFF8
:1013A000C005040405FF0CE0703018090A140B0195
:1013B000003E007F80E3801F807F80E380E380E346
:1013C00080FF8039800A0E1C0C0100E000E000E084
:1013D00000E000EF00FF80E1C0E1C0E1C0E1C0E15A
:1013E000C0E180FF80EF00090A140B01003E007F7E
:1013F00000E380E380E000E000E380E3807F003EE4
:10140000000A0E1C0C010001C001C001C001C03D5A
:10141000C07FC0E1C0E1C0E1C0E1C0E1C0E1C07F88
:10142000C03DC0090A140B01001E007F00E380E3E9
:1014300080FF80FF80E000E3807F803E00070E0E8B
:101440000801001E3E3838FEFE3838383838383843
:10145000380A0E1C0C01FC3DC07FC071C0E1C0E128
:10146000C0E1C0E1C0E1C07FC03DC001C061C07F3C
:10147000803F00090E1C0B0100E000E000E000E0EE
:1014800000EF00FF80E380E380E380E380E380E31C
:1014900080E380E380030E0E050100E0E0E000E061
:1014A000E0E0E0E0E0E0E0E0E00412120702FC70BF
:1014B000707000707070707070707070707070F01C
:1014C000E0090E1C0B0100E000E000E000E000E796
:1014D00080E700EE00FC00FC00FC00EE00E700E707
:1014E00000E380030E0E050100E0E0E0E0E0E0E054
:1014F000E0E0E0E0E0E0E00F0A14120100EF3CFF62
:10150000FEE3CEE386E386E386E386E386E386E3D3
:1015100086090A140B0100EF00FF80E380E380E3FB
:1015200080E380E380E380E380E3800A0A140C0117
:10153000001E007F806180E1C0E1C0E1C0E1C061C8
:10154000807F801E000A0E1C0C01FCEF00FF80E172
:1015500080E1C0E1C0E1C0E1C0E1C0FF80EF00E098
:1015600000E000E000E0000A0E1C0C01FC3DC07F22
:10157000C0E1C0E1C0E1C0E1C0E1C0E1C07FC03D69
:10158000C001C001C001C001C0060A0A080100EC88
:10159000FCF0E0E0E0E0E0E0E0090A140B01003ECE
:1015A00000FF00E380E0007E001F000380E380FF77
:1015B000003E00070D0D090100083838FEFE3838DE
:1015C000383838383E1E090A140B0100E380E380E6
:1015D000E380E380E380E380E380E380FF807B803F
:1015E0000B0A140B0000E0E071C071C031803B8039
:1015F0003B801B001F001F000E00110A1E1100007F
:10160000E1C38061E30073E7007367003377003F55
:1016100076003F3E003E3E001E3C001E1C00090AB4
:10162000140B0100E380730077003E001C003E00B5
:101630003E007700E380E3800B0E1C0B00FCE0E033
:1016400071C071C039803B803B801F001F000F00BC
:101650000E000E000E001C001C00080A0A0A010001
:10166000FFFF070E1C3870E0FFFF0713130A02FB91
:101670000E3E383838383830F0C0F07038383838E6
:10168000383E0E0115150703FB8080808080808026
:101690008080808080808080808080808080071330
:1016A000130A02FBE0F03838383838381C061C388A
:1016B0003838383838F0E00B03060B000430607F10
:1016C000C0C780FF00000100038007C00FE01FF0CB
:1016D0003FF87FFC000000007FFC3FF81FF00FE0A8
:1016E00007C003800100000007000A80124022208A
:1016F00023A020201040088007000A3C2D20002B4A
:101700002B2B002B2B2B00FFE0FFD1AFFF32FFD0A4
:10171000FFFEFFE0FFD1AEFFD0FFFEFFE0FFD110E4
:1017200000FFFEFFD0FFE0FFC1FFD1AED580A83F94
:10173000D300408D142000A1C8DA1281CFD9F1DB8B
:10174000402EA4A6AFFFD0FFFE000000080002015B
:10175000000003040700000000000000000000007B
:101760000023002600290000000000250028002B8F
:10177000000404040404040404020202020202033A
:101780000303030303010204081020408001020444
:101790000810200102040810200000000024002787
:1017A000002A000A3C2D2000F133E33311241FBE30
:1017B000CFEFD8E0DEBFCDBF12E0A0E0B1E0EEE8B1
:1017C000F9E702C005900D92A63DB107D9F725E0D3
:1017D000A6EDB2E001C01D92AB3EB207E1F71BE0FF
:1017E000C5EDDBE004C02197FE010E946A3BC43DC9
:1017F000D107C9F70E94D3200C94BA3C0C94000086
:101800002091D8023091D9022817390771F49091AC
:10181000D6028091D702981741F0E091D602F0E00D
:10182000ED58FC4F808190E008958FEF9FEF089571
:1018300008951F93CF93DF93DC015C968D919C916B
:101840005D97009739F421E030E013963C932E9396
:1018500012973BC05196ED91FC91529750962C9166
:101860005097322F30951FB75E964C915E97742F2C
:10187000727041FD6095F8944081772311F0422BFE
:1018800001C043234083EC012197F1F748E05081E8
:1018900060FF02C0522B01C053235083EC012197FB
:1018A000F1F76695415099F78081772319F08323EA
:1018B000808302C0282B20831FBF5C968D919C9152
:1018C0005D970197F1F781E090E0DF91CF911F9153
:1018D00008952091D8023091D9022817390771F460
:1018E0008091D7022091D60290E0805C9F4F821BAE
:1018F000910960E470E00E94563B089580E090E01A
:1019000008952091D8023091D90228173907B9F4E7
:101910009091D6028091D702981789F0E091D60273
:10192000F0E0ED58FC4F80812091D60230E02F5F2F
:101930003F4F2F7333272093D60290E008958FEF07
:101940009FEF0895089580E090E008953F924F92B0
:101950005F926F927F928F929F92AF92BF92CF923F
:10196000DF92EF92FF920F931F93CF93DF93EC01DF
:10197000962EDCACCBAC5C0124E0A20EB11CE98D50
:10198000FA8DC5010995182FE884F984C7010E94D2
:101990004A1A082F888599850E944D1A682E0130B1
:1019A00019F48FE0782E02C077247A94888599857F
:1019B0000E94401A082F888599850E943C1A882E1B
:1019C000888599850E94441AE0E6E91530F400976D
:1019D00021F0E80EF91E01E610C0888599850E9465
:1019E000471AF0E4F91530F4009721F0E80EF91EDB
:1019F00001E403C021E1E20EF11C891430F41C8AD9
:101A00001F8A188E1D8A1E8A9BC08016C0F3862DE1
:101A100090E0F70124912F3F21F4FFEFEF1AFF0A26
:101A200040C0901235C0888599850E944A1A970156
:101A30002F5F3F4FF701882311F0823091F484919A
:101A40008F8BF9012491288FF7013396E491EC8B69
:101A5000F7013496E491ED8BF7013596E491EE8B26
:101A600025C08491982F9F7092509E8B82958F7085
:101A70008D8BF9012491822F8F70888F22952F7082
:101A80002F8BF7013296E491E295EF70EC8B0EC04C
:101A9000F7013296E491E7219C012E0F311DE20EF1
:101AA000F31E801609F4ABCF0F5FB3CFE114F1043E
:101AB00009F446C0888599850E944D1A782E9F8822
:101AC000888C5D885C0CD8188E89D81A1D0D082D5D
:101AD000292D412F652DC5010E94571A882371F1C8
:101AE000E70CF11C07E0090D069506950695382CC4
:101AF000310E4E01F0E28F0E911C602E712C1315E9
:101B0000E9F0452C67018C2D8E19801798F4F601A9
:101B100084916E817F8148A219A31BA28AA394019C
:101B20004BE3C5010E94381AFFEFCF1ADF0A28E005
:101B3000420EE9CFE60CF71C1F5FE1CF8C8901C094
:101B400080E09BAD890F8BAF81E090E0DF91CF917A
:101B50001F910F91FF90EF90DF90CF90BF90AF90CB
:101B60009F908F907F906F905F904F903F900895DF
:101B70000F931F93CF93DF93EC018C85882331F073
:101B80006AEF76E18CEB93E00E9491198E010F5E73
:101B90001F4F6E857F85CE010E94271C892B71F017
:101BA00067E771E0C8010E94B13C892B49F06AE700
:101BB00071E0C8010E94B13C892B59F780E001C057
:101BC00081E0DF91CF911F910F9108951F920F92A5
:101BD0000FB60F9211242F933F934F935F936F9300
:101BE0007F938F939F93AF93BF93EF93FF93E09176
:101BF000D802F091D902309709F451C0968DA6858C
:101C0000B785858591FF04C09C91892329F447C03D
:101C10009C91892309F043C0A389B4899C9185894B
:101C2000809589238C93868997890197F1F7608D38
:101C3000718DA685B785558538E020E0CB010197E9
:101C4000F1F7822F90E095958795282F4C914523A9
:101C500009F02068315091F7868D81FD20958091A3
:101C6000D70290E001968F7399273091D6023817EA
:101C700049F0A091D702B0E0AD58BC4F2C938093AF
:101C8000D70203C0868D8160868F828D938D0197E8
:101C9000F1F7A389B4899C918589892B8C93FF9155
:101CA000EF91BF91AF919F918F917F916F915F91D4
:101CB0004F913F912F910F900FBE0F901F9018954D
:101CC000E091D802F091D902E817F90769F4A389E5
:101CD000B4899C918589809589238C931092D9022F
:101CE0001092D80281E0089580E00895CF93DF93A9
:101CF00026E431E0FC0131832083E75AFF4FC081A5
:101D0000D181209701F1E881F9810680F781E02DEA
:101D1000CE010995EA89FB8980818F7E8083EA89DB
:101D2000FB898081877F8083EA89FB8980818F7727
:101D30008083EA89FB8980818F7D80838A8D898F6A
:101D4000DF91CF910895FC01E95AFF4F8081918185
:101D5000DF91CF910C94600E0C94F73781E0809363
:101D60008F040E94941B80918304803331F48FEFA1
:101D700080939804809399040BC0883221F08230BC
:101D800021F081E003C08FEF01C083E080939804CD
:101D900084EF95E190938E0480938D0408950F93C2
:101DA0001F93CF93DF930E94AE0E809124039091F6
:101DB0002503892B09F021C18AE48093AF04109296
:101DC000B00463E871E084E794E00E94DE198FE5D7
:101DD0008093AF041092B0046091050370910603E4
:101DE00084E794E00E94E01D8DE48093AF0487E1D6
:101DF0008093B00466E871E084E794E00E94DE1905
:101E000060910A0370910B0384E794E00E94E01D47
:101E100082E08093AF041092B00480911A039091F5
:101E20001B032091180330911903281739073CF43C
:101E300020910E0330910F0321303105C1F08A3912
:101E4000924039F469E871E084E794E00E94DE1979
:101E50000EC06FE871E084E794E00E94DE196091A3
:101E60001A0370911B0384E794E00E94E01D8091A7
:101E7000160390911703209114033091150328172E
:101E800039073CF420910E0330910F0321303105C6
:101E9000F1F022E02093AF0427E12093B0048A39C7
:101EA000924039F463E971E084E794E00E94DE191E
:101EB0000EC069E971E084E794E00E94DE19609148
:101EC00016037091170384E794E00E94E01D80914F
:101ED00012039091130320911003309111032817DE
:101EE00039073CF420910E0330910F032130310566
:101EF000F1F022E02093AF042DE22093B0048A3960
:101F0000924039F46DE971E084E794E00E94DE19B3
:101F10000EC063EA71E084E794E00E94DE196091EC
:101F200012037091130384E794E00E94E01D8DE496
:101F30008093AF048DE28093B0048091F60290917B
:101F4000F702019771F56091F4027091F50284E750
:101F500094E00E94E01D6091F2027091F30284E728
:101F600094E00E94E01D61E971E084E794E00E9442
:101F7000DE196091F0027091F10284E794E00E9412
:101F8000E01D6091EE027091EF0284E794E00E9400
:101F9000E01D08EE16E129E042E06DE282E40E94D5
:101FA000D31B8091F6029091F702892B31F5609155
:101FB0001E0370911F0384E794E00E94E01D60916E
:101FC0001C0370911D0384E794E00E94E01D61E909
:101FD00071E084E794E00E94DE1960912203709121
:101FE000230384E794E00E94E01D60912003709138
:101FF000210384E794E00E94E01D809124039091E6
:102000002503181619060CF090C4019709F0B7C003
:102010008091000390910103863091050CF05FC020
:102020008230910531F485E08093AF041092B004C2
:1020300018C08330910529F485E08093AF048DE0CA
:102040000EC08430910529F485E08093AF048AE1C5
:1020500006C0059731F485E08093AF0487E2809352
:10206000B00467EA71E084E794E00E94DE19C8E0FA
:10207000C093AF041092B00469EA71E084E794E081
:102080000E94DE19C093AF04DDE0D093B0046FEA84
:1020900071E084E794E00E94DE19C093AF048AE106
:1020A0008093B0046CEB71E084E794E00E94DE1949
:1020B000C093AF0487E28093B00468EC71E084E7DA
:1020C00094E00E94DE1906ED16E129E042E066E3A5
:1020D00089E60E94D31BC093AF04D093B0048091D3
:1020E000000390910103863091050CF448C08630BE
:1020F000910531F485E08093AF041092B00410C0D4
:102100008730910529F485E08093AF048DE006C007
:10211000089731F485E08093AF048AE18093B0049E
:1021200067EA71E084E794E00E94DE1904EC16E1AE
:1021300029E042E060E089E60E94D31BC8E0C0933A
:10214000AF041092B00462ED71E084E794E00E9465
:10215000DE19C093AF048DE08093B0046AED71E0A6
:1021600084E794E00E94DE19C093AF048AE1809373
:10217000B00462EE71E084E794E00E94DE19809181
:102180002403909125030297C9F485E08093AF045E
:102190001092B00469EE71E084E794E00E94DE19C9
:1021A0008DE28093AF048CE18093B0046091FE02D5
:1021B0007091FF0284E794E00E94E01D8091240367
:1021C000909125030397C9F485E08093AF041092A2
:1021D000B00462EF71E084E794E00E94DE198DE2C2
:1021E0008093AF048CE18093B004609108037091F8
:1021F000090384E794E00E94E01D809124039091FC
:102200002503049709F08EC08091FC029091FD0295
:10221000009729F41092AF041092B00415C08130D9
:10222000910521F41092AF048DE00CC0823091052D
:1022300021F41092AF048AE105C0039729F41092AB
:10224000AF0487E28093B00467EA71E084E794E02A
:102250000E94DE1988E08093AF041092B0046CEF06
:1022600071E084E794E00E94DE1960911803709198
:1022700019036A3982E0780739F467E072E084E78D
:1022800094E00E94DE1904C084E794E00E94E01DFF
:1022900088E08093AF048DE08093B0046BE072E03F
:1022A00084E794E00E94DE19609114037091150395
:1022B0006A3922E0720739F467E072E084E794E05B
:1022C0000E94DE1904C084E794E00E94E01D88E0CB
:1022D0008093AF048AE18093B00466E172E084E702
:1022E00094E00E94DE1960911003709111036A3925
:1022F00082E0780739F467E072E084E794E00E94B6
:10230000DE1904C084E794E00E94E01D88E0809319
:10231000AF0487E28093B00461E272E084E794E066
:102320000E94DE1980912403909125030597C9F539
:1023300085E08093AF041092B0046AEC71E084E70A
:1023400094E00E94DE198091FA029091FB020097BE
:1023500021F41092AF048FE005C0019729F4109288
:10236000AF048EE18093B00467EA71E084E794E003
:102370000E94DE19CEE0C093AF048FE08093B004DA
:102380006FE272E084E794E00E94DE19C093AF042C
:102390008EE18093B00467E972E084E794E00E94E4
:1023A000DE198091240390912503069771F58091A1
:1023B000F8029091F902009729F41092AF0410925C
:1023C000B00407C0019729F41092AF048DE0809308
:1023D000B00467EA71E084E794E00E94DE19C8E087
:1023E000C093AF041092B00465E372E084E794E018
:1023F0000E94DE19C093AF048DE08093B00463E4C3
:1024000072E084E794E00E94DE19809124039091A9
:1024100025030A9709F07EC08091E2029091E302C1
:10242000019761F48EE18093AF0484E18093B0045E
:1024300061E572E084E794E00E94DE198091E20297
:102440009091E302892B09F065C082E08093AF048C
:102450001092B00480911A0390911B038A39924024
:1024600039F469E871E084E794E00E94DE190EC057
:102470006FE871E084E794E00E94DE1960911A032E
:1024800070911B0384E794E00E94E01D82E080933A
:10249000AF0487E18093B0048091160390911703F5
:1024A0008A39924039F463E971E084E794E00E944C
:1024B000DE190EC069E971E084E794E00E94DE193C
:1024C000609116037091170384E794E00E94E01D69
:1024D00082E08093AF048DE28093B0048091120378
:1024E000909113038A39924039F46DE971E084E7E1
:1024F00094E00E94DE190EC063EA71E084E794E084
:102500000E94DE19609112037091130384E794E036
:102510000E94E01D80912403909125030B9709F000
:1025200080C080910C0390910D03892BB9F4C5E014
:10253000C093AF041092B00467E572E084E794E0C2
:102540000E94DE19C093AF048FE08093B00463E66D
:1025500072E084E794E00E94DE1963C085E0809316
:10256000AF041092B0046EE672E084E794E00E943B
:10257000DE198091E4029091E502892B81F404EC4C
:1025800016E129E042E063E18DE20E94D31B06EDF3
:1025900016E129E042E060E38DE20E94D31B8091C6
:1025A000E4029091E502019781F404EC16E129E040
:1025B00042E063E189E40E94D31B06ED16E129E0C5
:1025C00042E060E389E40E94D31B89E28093AF0478
:1025D0008EE18093B0046091EC027091ED0284E78B
:1025E00094E00E94E01D6091EA027091EB0284E7A2
:1025F00094E00E94E01D61E971E084E794E00E94AC
:10260000DE196091E8027091E90284E794E00E948B
:10261000E01D6091E6027091E70284E794E00E9479
:10262000E01D80912403909125030D9709F065C06A
:1026300085E08093AF041092B00468E772E084E70D
:1026400094E00E94DE198091FC029091FD02892B9A
:1026500031F46DE772E084E794E00E94DE19809126
:10266000FC029091FD02019731F460E872E084E78A
:1026700094E00E94DE198091FC029091FD02029785
:1026800031F463E872E084E794E00E94DE1960E0D0
:1026900072E084E794E00E94DE198DE28093AF043B
:1026A0008CE18093B0048091FC029091FD02892B13
:1026B00041F46091E0027091E10284E794E00E94AD
:1026C000E01D8091FC029091FD02019741F4609120
:1026D000DE027091DF0284E794E00E94E01D8091A9
:1026E000FC029091FD02029741F46091DC0270912E
:1026F000DD0284E794E00E94E01D80912403909124
:1027000025030E9709F049C085E08093AF0410922D
:10271000B00466E872E084E794E00E94DE198091DC
:10272000DA029091DB02009721F41092AF048FE05F
:1027300005C0019729F41092AF048EE18093B00494
:1027400080910703811104C06EE18EE00E94B81DE4
:1027500080910703813021F46EE18DE10E94B81D64
:1027600067EA71E084E794E00E94DE19CEE0C0934E
:10277000AF048FE08093B00460E972E084E794E0F6
:102780000E94DE19C093AF048EE18093B00462E32F
:1027900072E084E794E00E94DE1980912403909116
:1027A00025030F9709F0C1C085E08093AF04109214
:1027B000B00463E972E084E794E00E94DE1980913E
:1027C000020390910303823091050CF042C0009700
:1027D00021F41092AF048FE005C0019729F4109204
:1027E000AF048EE18093B00480910403811104C092
:1027F0006BE68EE00E94B81D80910403813021F4C5
:102800006CE58DE10E94B81D67EA71E084E794E011
:102810000E94DE19CEE0C093AF048FE08093B00435
:1028200062EA72E084E794E00E94DE19C093AF048C
:102830008EE18093B0046DEA72E084E794E00E9438
:10284000DE1906ED16E129E042E066E382E70E9428
:10285000D31B809102039091030302970CF465C08F
:1028600004EC16E129E042E062E082E70E94D31B1B
:1028700080910203909103038230910521F410921C
:10288000AF048FE00CC08330910521F41092AF04A7
:102890008EE105C0049729F41092AF048DE2809375
:1028A000B00480910403823021F463E58EE00E943D
:1028B000B81D80910403833021F463E58DE10E940B
:1028C000B81D80910403843021F46CE58CE20E94F1
:1028D000B81D67EA71E084E794E00E94DE19CEE05B
:1028E000C093AF048FE08093B00467EB72E084E79D
:1028F00094E00E94DE19C093AF048EE18093B0048F
:1029000062EC72E084E794E00E94DE19C093AF04A9
:102910008DE28093B0046DEC72E084E794E0DF9187
:10292000CF911F910F910C94DE19DF91CF911F91E0
:102930000F910895CF92DF92EF92FF920F931F9322
:10294000CF93DF936C017A018B01C0E0D0E0CE150C
:10295000DF0581F0D8016D918D01D601ED91FC91DB
:102960000190F081E02DC6010995892B11F0219687
:10297000EECF7E01C701DF91CF911F910F91FF90A4
:10298000EF90DF90CF900895FC01538D448D252F5B
:1029900030E0842F90E0821B930B541710F0CF96F9
:1029A000089501970895FC01918D828D981761F02B
:1029B000828DDF01A80FB11D5D968C91928D9F5F76
:1029C0009F73928F90E008958FEF9FEF0895FC0121
:1029D000918D828D981731F0828DE80FF11D858DD4
:1029E00090E008958FEF9FEF0895FC01918D228D67
:1029F000892F90E0805C9F4F821B91098F739927EC
:102A000008958CEB93E00E94F51421E0892B09F4E2
:102A100020E0822F0895FC01848DDF01A80FB11DF5
:102A2000A35ABF4F2C91848D90E001968F73992704
:102A3000848FA689B7892C93A089B1898C918370E2
:102A400080648C93938D848D981306C00288F389DB
:102A5000E02D80818F7D80830895EF92FF920F9308
:102A60001F93CF93DF93EC0181E0888F9B8D8C8D3A
:102A7000981305C0E889F989808185FD26C0F62E66
:102A80000B8D10E00F5F1F4F0F731127E02E8C8D01
:102A9000E8120CC00FB607FCFACFE889F9898081EB
:102AA00085FFF5CFCE010E940B15F1CF8B8DFE0176
:102AB000E80FF11DE35AFF4FF0829FB7F8940B8F98
:102AC000EA89FB89808180620AC09FB7F894EE8909
:102AD000FF896083E889F9898081837080648083BD
:102AE0009FBF81E090E0DF91CF911F910F91FF9008
:102AF000EF900895CF93DF93EC01888D8823C9F080
:102B0000EA89FB89808185FD05C0A889B9898C91F6
:102B100086FD0FC00FB607FCF5CF808185FFF2CF91
:102B2000A889B9898C9185FFEDCFCE010E940B1544
:102B3000E7CFDF91CF91089580E090E0892B29F0D5
:102B40000E94011581110C94000008950895DC0184
:102B50001696ED91FC91179712968C91481B477031
:102B600081E090E001C0880F4A95EAF7E60FF11D79
:102B70003081222311F0832B02C080958323808330
:102B80000895FB014181DC0112962C9112974217A6
:102B900068F013962C911397241740F060811596D6
:102BA0002C91621718F424810C94A7150895FC0148
:102BB00030819281930F92832181921760F49481E6
:102BC0009F5F94838381830F821710F08FEF820FB2
:102BD000838381E0089580E00895FC011282808162
:102BE0008150838314820895FC01808D8F5F089546
:102BF00080E00895FC01E60FF11D849190E0982F8C
:102C000088273196E4918E0F911D08952EE93FE0BB
:102C1000009729F0F9013197F1F70197F9CF08955D
:102C20005091BB036091BA034091B9033091B8034E
:102C3000A091B603B091B703E091B403F091B5034E
:102C40009FB79093B303F89498E02C9187FF02C04C
:102C5000252B01C026232C932081242B2083880F31
:102C6000208123232083915081F78091B3038FBF6C
:102C7000089590E0FC01EF58F84EE491F0E0EE0F7B
:102C8000FF1FE959F84E259134913093B7032093F3
:102C9000B60370E0FB01EF58F84EE491F0E0EE0F60
:102CA000FF1FE959F84E259134913093B5032093D5
:102CB000B403FC01EB57F84E84918093BB03FB01F6
:102CC000EB57F84E64916093B90360956093B80335
:102CD00080958093BA030895DB011496ED91FC91E1
:102CE000159720E030E065E00994CF92DF92EF92F3
:102CF000FF920F931F93CF93DF938C017B016A01A7
:102D000080E0F601C49181110BC0CF3F09F457C098
:102D10004C2FB701C8010E946C1681114EC054C0DF
:102D2000CF3F11F44FEFF5CFCE3F09F44FC0C03F76
:102D300008F043C0C03E58F04C2F4F70D701149696
:102D4000ED91FC91159720E030E062E00CC0C03DB1
:102D500068F04C2F4F70D7011496ED91FC911597A8
:102D600020E030E063E0C801099527C0C03CF8F0DE
:102D7000D7011496ED91FC91159720E030E040E0EA
:102D800064E0C8010995C295C07FCE5FD0E0CE0156
:102D90000E940616D7011496ED91FC91159720E03C
:102DA00030E041E064E0C8010995CE0104C0C7FDF0
:102DB00004C08C2F90E00E94061680E001C081E0E4
:102DC000BFEFCB1ADB0A9DCF80E001C081E0DF912D
:102DD000CF911F910F91FF90EF90DF90CF900895CA
:102DE000AF92BF92CF92DF92FF920F931F93CF9338
:102DF000DF936C018B01F42EE90120E1421709F405
:102E000056C02417A0F03AE043135BC0DB011496D0
:102E1000ED91FC91159720E030E042E061E00995EA
:102E200043E257E1B801C6010E9475164AC081E12C
:102E3000481709F43FC0A5E14A1343C0FB01A28033
:102E4000B3804BE157E1C6010E947516D501149677
:102E50004C91406BB801C6010E946C16D8011496C3
:102E6000ED91FC91159720E030E041E062E0C60171
:102E70000995F50126813781D8011496ED91FC91D1
:102E80001597D50115964C9166E0C60109958111FB
:102E900002C080E0C7C0D8011496ED91FC9115974F
:102EA00020E030E040E063E0C60109950AC042E15D
:102EB00057E102C047E057E1B801C6010E9475160C
:102EC000B0C0F80102811381F2E3FF1609F470C06B
:102ED000FF15B8F025E1F21609F477C037E1F316D3
:102EE00009F489C084E1F8129CC0D8011696ED91CE
:102EF000FC91179715968C919F01280F311DC901E0
:102F00005CC0A6E4FA1609F485C0B7E4FB1609F420
:102F100084C0EBE3FE1285C089819B81913029F04A
:102F2000933031F4482F885004C048E0480F01C066
:102F3000482F51E0D80113962C91281708F450E03F
:102F400031E0F8012281421708F430E021E048170F
:102F500008F020E0822F852B382319F4252309F46B
:102F600060C0CA80913061F038F0923061F09330E7
:102F700071F4FF24FA940CC0F12CDD24D39409C021
:102F8000FF24F39405C0F12CDD24DA9402C0F12C67
:102F9000D12CC7FE04C0BE01C8010E94C1158881A2
:102FA0008D0D888389818F0D8983CC0C91F739C071
:102FB000BE01C8010E94C11534C011928E179F072F
:102FC000E1F7C8010E94ED152CC0C8010E94D71579
:102FD000882309F45ECFD8011696ED91FC911797DE
:102FE00015968C919F01280F311DC90111928E17E2
:102FF0009F07E1F716C01882D80112968C9112979C
:10300000898315968C91159781508A8313968C919C
:103010008B8307C0F801858103C0D80111968C917C
:10302000888381E0DF91CF911F910F91FF90DF9016
:10303000CF90BF90AF9008958B5A9F4FDC018D9138
:103040009C91DC01ED91FC910680F781E02D0994C3
:103050008B5A9F4FDC018D919C91DC01ED91FC918D
:103060000484F585E02D09948B5A9F4FDC018D91E6
:103070009C91DC01ED91FC910284F385E02D099493
:103080000E94AC3C860F911DFC0183A18F3F19F07B
:10309000642F0C94C11F0895EF92FF920F931F931A
:1030A000CF93DF93EC01142F7901862F90E0FC0180
:1030B0003197E730F10508F057C0EC5BFF4F0C94F7
:1030C0006A3BE9013BC07E018E01035F1F4FF701A0
:1030D00083A18F3F41F061E00E94F01F61E0F701A2
:1030E00083A10E94C11FFFEFEF1AFF0A0E151F05F3
:1030F00071F740E064E0CE010E94421840E065E0D4
:1031000011C08BA18F3F81F160E02BC0411103C042
:1031100041E062E026C040E064E0CE010E94421837
:1031200040E062E0CE010E9442186FA188A50E9493
:1031300039161AC0842F0E94101616C01123A1F050
:1031400089910E9410161150F9CF112369F0F701EF
:1031500084910E941016FFEFEF1AFF0A1150F5CF6D
:1031600061E0CE010E94421881E0DF91CF911F9172
:103170000F91FF90EF9008950F931F93CF93DF93DC
:10318000EC018C010B5A1F4FD8018D919C91DC01F1
:10319000ED91FC910084F185E02D0995CC5ADF4F2B
:1031A0002881892B81F4121674F460E0822F0E942A
:1031B000C11F61E070E080E090E00E94432061E088
:1031C00088810E94C11FF80180819181DC01ED910D
:1031D000FC910084F185E02DDF91CF911F910F913B
:1031E0000994EF92FF921F93CF93DF93EC01162F78
:1031F0008C85882321F08CEB93E00E942D157E01B5
:1032000083E5E80EF11CD7018C9187FD0DC0F70115
:1032100080810E94981F892B81F061E070E080E03E
:1032200090E00E944320F3CFFE01E45AFF4F6081FB
:1032300070E080E090E00E94432083EC90E00197F2
:10324000F1F7CB5ADF4F88819981DC01ED91FC9138
:103250000190F081E02D612FDF91CF911F91FF90C0
:10326000EF900994CF92DF92EF92FF920F931F930A
:10327000CF93DF9300D000D0CDB7DEB76230C8F572
:10328000C62E8C01FC01EE5AFF4F808187FD0AC0DB
:103290000E94C11F61E070E080E090E00E94432046
:1032A00081E028C0AE014F5F5F4F63E077E1C80166
:1032B0000E94461F8823F1F0D12CE12CF12C49818A
:1032C0005A816B817C81C416D506E606F70691F01B
:1032D000AE014F5F5F4F6FEF76E1C8010E94461F5E
:1032E00049815A816B817C81C416D506E606F706B2
:1032F00009F080E00F900F900F900F90DF91CF9129
:103300001F910F91FF90EF90DF90CF900895CF9392
:10331000DF93EC010E94760ECE01DF91CF910C94E9
:10332000233CEF92FF920F931F93CF93DF938C0177
:103330007B01C0E0D0E0F701EC0FFD1F6491662334
:1033400061F0D801ED91FC910190F081E02DC80170
:103350000995892B11F02196EECFCE01DF91CF9107
:103360001F910F91FF90EF9008956115710579F00D
:10337000FB0101900020E9F73197AF01461B570B85
:10338000DC01ED91FC910280F381E02D099480E055
:1033900090E008950F931F93CF93DF93EC010E9469
:1033A00091198C0160E871E0CE010E94B519800F7F
:1033B000911FDF91CF911F910F9108950C94B51932
:1033C0001F920F920FB60F9211242F933F934F939A
:1033D0005F936F937F938F939F93AF93BF93EF937D
:1033E000FF938CEB93E00E940B15FF91EF91BF913F
:1033F000AF919F918F917F916F915F914F913F918D
:103400002F910F900FBE0F901F9018951F920F9243
:103410000FB60F9211242F938F939F93EF93FF93E7
:10342000E091CC03F091CD038081E091D203F09143
:10343000D30382FD12C090818091D5038F5F8F737B
:103440002091D603821751F0E091D503F0E0E454C7
:10345000FC4F958F8093D50301C08081FF91EF9140
:103460009F918F912F910F900FBE0F901F901895E5
:10347000DB01ED91FC9109940B96FC018491089578
:103480000A96FC018491089568E00C94FA1566E0B0
:103490000C94FA15FC01849108950E944A1A88231D
:1034A00021F0823011F083E0089586E008950F93B3
:1034B000FC010150040F84A996A9941718F008176D
:1034C00028F402C0081750F0041740F42150260FCA
:1034D00083A995A9961720F4281720F480E007C047
:1034E000281720F481E0261710F0F8CF81E00F9123
:1034F00008950F931F93CF93DF931F92CDB7DEB73D
:1035000000917A0410917B04E091A904F091AA043F
:1035100082E0099520E030E04AE0B80188E794E0D5
:103520000E94381A182FE091A904F091AA0483E0B0
:103530000995E091A904F091AA0480E0099511236E
:10354000C1F160917A0470917B049E012F5F3F4F1F
:1035500046E488E794E00E94381A898180937804D1
:1035600060917A0470917B049E012F5F3F4F47E486
:1035700088E794E00E94381A8981809379046091E9
:103580007A0470917B0420E030E048E488E794E01E
:103590000E94381A8093830460917A0470917B04AE
:1035A0002BEA34E047E188E794E00E94381A81E092
:1035B00001C080E00F90DF91CF911F910F9108958E
:1035C000CF93DF93EC0161E083E00E94F01F20972E
:1035D00011F460E004C0CF3FD10531F461E083E035
:1035E000DF91CF910C94C11FECE4F7E1E491E3305B
:1035F000F9F048F4E130B9F0E230A1F584B5806229
:1036000084BDC8BD34C0E730E9F0E83019F1E430DA
:1036100049F580918000806280938000D0938B0078
:10362000C0938A0024C084B5806884BDC7BD1FC014
:1036300080918000806880938000D0938900C0933F
:10364000880015C08091B00080688093B000C0935E
:10365000B3000DC08091B00080628093B000C09331
:10366000B40005C0C038D1050CF0B8CFB2CFDF919F
:10367000CF910895FC01A089B18982E08C93A48543
:10368000B5851C92A685B7858FEC8C93108EA48986
:10369000B58986E08C93A289B3898C9180618C93E3
:1036A000A289B3898C9188608C93A289B3898C910B
:1036B00080688C930288F389E02D80818F7D8083E0
:1036C0000895CF93DF938091B104811105C081E00B
:1036D0008093B1040E94791AC0917A04D0917B043E
:1036E000E091A904F091AA0482E00995E091A9046F
:1036F000F091AA0481E0099520E030E044E1BE01A8
:1037000088E794E00E94381A2BEA34E047E1BE01D2
:1037100088E794E00E94381AE091A904F091AA0485
:1037200080E0DF91CF91099480917C0490917D0499
:10373000009709F437C020918F04FC01211107C0C4
:103740003596E491E0939004FC013C960FC0213043
:1037500039F43F96E491E0939004FC01709606C022
:103760003D96E491E0939004FC013E96E491E09351
:10377000910480919004082E000C990B20919104E3
:10378000821B910927FD939520919204203441F0EA
:10379000829FC001112426E0969587952A95E1F72E
:1037A0008093930408958F929F92AF92BF92CF928D
:1037B000DF92EF92FF920F931F93CF93DF93E82E48
:1037C000C62FF42ED22F5801242F220F220F220FA2
:1037D0000D2F462F682F88E794E00E94571A882300
:1037E00049F1DC0F8F2C912CCD1721F165010F2DA4
:1037F0001E2D0023D9F0F601849160917A04709116
:103800007B0410939404C0939504109297048093C2
:10381000960424E934E04BE388E794E00E94381AE8
:10382000FFEFCF1ADF0A0150185FE3CFA80CB91CD5
:10383000CF5FDACFDF91CF911F910F91FF90EF9083
:10384000DF90CF90BF90AF909F908F900895EF92B0
:10385000FF920F931F93CF93DF93EC017B0100E066
:1038600010E0E114F10469F1E881F9810084F18547
:10387000E02DCE010995892BC9F0E881F9810284F8
:10388000F385E02DCE0109958D3071F38A3021F456
:103890000115110549F315C0FE01E00FF11F818BE1
:1038A0000F5F1F4F00341105F8F20BC081E0E81ADA
:1038B000F10839F061E070E080E090E00E94432080
:1038C000D0CFFE01E00FF11F118A8C85882399F07B
:1038D0000115110581F0BE016F5E7F4F8CEB93E007
:1038E0000E94DE190034110530F460E871E08CEBC1
:1038F00093E00E94B519C801DF91CF911F910F91FC
:10390000FF90EF900895EF92FF920F931F93CF9344
:10391000DF93EC017B011D85111103C061E00E9462
:103920003219B701CE010E94CA19CE010E94B80D0A
:10393000082F111104C060E0CE010E943219802FBF
:10394000DF91CF911F910F91FF90EF9008950F930A
:103950001F93CF93E0918604F0918704309719F07C
:1039600088E794E0099500917A0410917B04E09136
:10397000A904F091AA0482E00995E091A904F091CC
:10398000AA0481E0099520E030E045E1B80188E72C
:1039900094E00E94381AC82F882341F02BEA34E0C3
:1039A00047E1B80188E794E00E94381AE091A90441
:1039B000F091AA0480E009958C2FCF911F910F916F
:1039C0000895FF920F931F93CF93DF93082FC62F75
:1039D000D62F1DE0FF24FA94D830B0F060917A041D
:1039E00070917B04109394040093950410929704B3
:1039F000F092960424E934E04BE388E794E00E94D7
:103A0000381AD850185FE8CF8C2F86958695869502
:103A1000282F220F220F220F235F48EF849FC00D13
:103A200011248C2FCC2321F197E0892760917A040F
:103A300070917B0420939404009395041092970452
:103A40008F5F87702FEF30E0A90102C0440F551F30
:103A50008A95E2F74093960424E934E04BE388E743
:103A600094E0DF91CF911F910F91FF900C94381A41
:103A7000DF91CF911F910F91FF900895FF920F93C7
:103A80001F93CF93DF93F82E162FC4E7D4E06E81F7
:103A90007F8188A319A301E00BA38FEF8AA324E9F8
:103AA00034E04BE388E794E00E94381A6E817F810E
:103AB000F8A2185F19A30BA38EEF8AA324E934E0C0
:103AC0004BE388E794E0DF91CF911F910F91FF9036
:103AD0000C94381A833081F028F4813099F08230C8
:103AE000A1F008958730A9F08830B9F08430D1F47E
:103AF000809180008F7D03C0809180008F778093BC
:103B00008000089584B58F7702C084B58F7D84BD11
:103B100008958091B0008F7703C08091B0008F7DB1
:103B20008093B00008953FB7F8948091E10590919B
:103B3000E205A091E305B091E40526B5A89B05C078
:103B40002F3F19F00196A11DB11D3FBFBA2FA92F1C
:103B5000982F8827820F911DA11DB11DBC01CD0199
:103B600042E0660F771F881F991F4A95D1F7089585
:103B70000F93CF93DF93C82FD62F0FE0262F482F18
:103B80006DE088E794E00E94571A8823A9F06D2F12
:103B90008C2F0E94E11C6C2F8DE00E943E1D6C2F2B
:103BA0008CE08D0F0E943E1D6D2F8EE08C0FDF91FB
:103BB000CF910F910C94E11CDF91CF910F9108955B
:103BC0004F925F926F927F928F929F92AF92BF922D
:103BD000CF92DF92EF92FF920F931F93CF93DF93D9
:103BE000CDB7DEB7A1970FB6F894DEBF0FBECDBF3D
:103BF0008C016B01770FEE08FF08F7FE2FC0DC0188
:103C0000ED91FC910190F081E02D6DE209955C0150
:103C100022273327A9012C193D094E095F0919A252
:103C2000FE01B1967F019AE0492E512C612C712C36
:103C3000CA01B901A30192010E941538605DD70144
:103C40006E937D01211531054105510589F7BD01AF
:103C5000C8010E94B5198A0D9B1D1EC0A7019601BF
:103C600019A2FE01B1967F018AE0882E912CA12C29
:103C7000B12CCA01B901A50194010E941538605DFB
:103C8000D7016E937D01211531054105510589F755
:103C9000BD01C8010E94B519A1960FB6F894DEBF08
:103CA0000FBECDBFDF91CF911F910F91FF90EF908D
:103CB000DF90CF90BF90AF909F908F907F906F904C
:103CC0005F904F90089580916504811105C081E057
:103CD00090916704911101C080E00895809165047E
:103CE0008130D1F4409168045091690460916A0474
:103CF00070916B0480916C0490916D04A0916E049E
:103D0000B0916F04481B590B6A0B7B0B81E0483E56
:103D100053406105710508F480E008952F923F92A9
:103D20004F925F926F927F928F929F92AF92BF92CB
:103D3000CF92DF92EF92FF920F931F93CF93DF9377
:103D4000CDB7DEB727970FB6F894DEBF0FBECDBF55
:103D50008983E12CF12C90E09F838E835C01E1E06C
:103D6000AE1AB108BD82AC82EA14FB04A4F500EBE4
:103D700015E0C12CD12C8C819D818E199F099B83CC
:103D80008A83EA81FB81CE16DF060CF5F8012190CB
:103D90003190419051908F0160807180828093803A
:103DA000A4019301C201B1010E94C43918165CF448
:103DB000F80134976082718282829382F8012082B6
:103DC000318242825382FFEFCF1ADF0ADACF2FEF20
:103DD000E21AF20AC9CF898180FF10C0EE81FF810B
:103DE0003196F595E795EE0FFF1FEE0FFF1FE0559B
:103DF000FA4F60817181828193811CC059805694F1
:103E0000F4E05F9EC0011124FC01EC54FA4FDC0188
:103E1000A055BA4F2D913D914D915C91608171817A
:103E2000828193810E94B03820E030E040E05FE37F
:103E30000E94313727960FB6F894DEBF0FBECDBF74
:103E4000DF91CF911F910F91FF90EF90DF90CF9076
:103E5000BF90AF909F908F907F906F905F904F90AA
:103E60003F902F900895CF93DF93BC0182EB94E0B5
:103E70000E94E01DEC0160E871E082EB94E00E949A
:103E8000B5198C0F9D1FDF91CF910895CF92DF92CE
:103E9000EF92FF920F931F93CF93DF93EC016B018F
:103EA0007A011D85111107C0E881F9810684F78523
:103EB000E02D61E00995B601CE010E94CA198C85FA
:103EC000882331F063EA77E18CEB93E00E9491194B
:103ED0006E857F85CE010E94271C892B49F040E02A
:103EE00050E060E070E0CE0141960E94AE3503C024
:103EF00060E070E0CB01F70160837183828393837C
:103F0000CE010E94B80D082F111108C0E881F98177
:103F10000684F785E02D60E0CE010995802FDF91C2
:103F2000CF911F910F91FF90EF90DF90CF90089568
:103F3000CF93DF93282F30E0F901E75BF84E8491AF
:103F4000F901EB57F84ED491F901EF58F84EC491AE
:103F5000CC2391F081110E946A1DEC2FF0E0EE0F4E
:103F6000FF1FE35AF84EA591B491EC91ED2381E047
:103F700090E021F480E002C080E090E0DF91CF91FA
:103F800008951F93CF93DF93282F30E0F901E75B6B
:103F9000F84E8491F901EB57F84ED491F901EF589E
:103FA000F84EC491CC23C1F0162F81110E946A1DD6
:103FB000EC2FF0E0EE0FFF1FE959F84EA591B491F8
:103FC0009FB7F894111104C08C91D095D82302C0EA
:103FD000EC91DE2BDC939FBFDF91CF911F91089571
:103FE000CF93DF9390E0FC01EB57F84E2491FC0156
:103FF000EF58F84E8491882361F190E0880F991F63
:10400000FC01E756F84EC591D491FC01E959F84EF0
:10401000A591B491611109C09FB7F894888120954A
:1040200082238883EC912E230BC0623061F49FB70A
:10403000F8948881322F309583238883EC912E2B3E
:104040002C939FBF06C08FB7F894E8812E2B28834E
:104050008FBFDF91CF9108958E3008F08E5087701A
:10406000806480937C0080917A00806480937A00E1
:1040700080917A0086FDFCCF8091780020917900B4
:1040800090E0922B08958F929F92AF92BF92CF9221
:10409000DF92EF92FF926B017C010E94931D4B0116
:1040A0005C01C114D104E104F104F1F00E94931DFC
:1040B000DC01CB0188199909AA09BB09883E934004
:1040C000A105B10570F321E0C21AD108E108F10899
:1040D00088EE880E83E0981EA11CB11CC114D10487
:1040E000E104F10419F7DDCFFF90EF90DF90CF905E
:1040F000BF90AF909F908F9008952FB7F8946091E4
:10410000DD057091DE058091DF059091E0052FBF00
:1041100008951F920F920FB60F9211242F933F9381
:104120008F939F93AF93BF938091DD059091DE05B0
:10413000A091DF05B091E0053091DC0523E0230F6D
:104140002D3720F40196A11DB11D05C026E8230FCF
:104150000296A11DB11D2093DC058093DD0590938F
:10416000DE05A093DF05B093E0058091E105909115
:10417000E205A091E305B091E4050196A11DB11DF2
:104180008093E1059093E205A093E305B093E405E5
:10419000BF91AF919F918F913F912F910F900FBE43
:1041A0000F901F901895789484B5826084BD84B573
:1041B000816084BD85B5826085BD85B5816085BD22
:1041C00080916E00816080936E00109281008091DA
:1041D0008100826080938100809181008160809362
:1041E0008100809180008160809380008091B10087
:1041F00084608093B1008091B00081608093B000B2
:1042000080917A00846080937A0080917A00826045
:1042100080937A0080917A00816080937A00809107
:104220007A00806880937A001092C1000E94AE0EDE
:104230000E94611BC7E2EC2EC5E0FC2ED8EFCD2E0C
:10424000D5E1DD2ECCE380917C0490917D048752F2
:10425000954051F0F0927D04E0927C040E94941B02
:10426000D0928E04C0928D0408E111E02FE240E16B
:1042700060E080E00E94D31B1092AF04C093B004B2
:104280006CE671E084E794E00E94DE190E94A71CAE
:104290008111D9CF61E083E00E94F01F80E090E0BF
:1042A0000E94EF3780930703823010F010920703CB
:1042B0008AE090E00E94EF3780930403853010F08D
:1042C0001092040310920F0310920E031092FD023D
:1042D0001092FC021092DB021092DA0210925A0342
:1042E000109259031092500310924F038EE190E008
:1042F0009093600380935F038EEF9FEF90935E0334
:1043000080935D0310925C0310925B031092520342
:1043100010925103109254031092530310922503EC
:104320001092240382E090E09093010380930003B5
:1043300010920D0310920C031092060310920503C5
:104340001092E5021092E4028091070381110FC0E0
:1043500081EE90E09093FF028093FE0288EC90E063
:104360009093E1028093E00284E690E010C08130F7
:10437000B1F484E690E09093FF028093FE028AE518
:1043800090E09093E1028093E00288E290E09093C5
:10439000DF028093DE029093DD028093DC028AE9E3
:1043A00092E09093190380931803909315038093E0
:1043B0001403909311038093100324E130E03093B1
:1043C0000903209308031092620310926103109274
:1043D000E3021092E2021092FB021092FA0221E034
:1043E00030E0309372032093710310926E031092A9
:1043F0006D0310926C0310926B0310927003109275
:104400006F0390931B0380931A0390931703809379
:10441000160390931303809312038CEB93E00E9496
:104420003A1B64EF71E080E090E00E94432081E05D
:104430008093BE0410920E058091040587FD0EC086
:1044400061E00E94F01F61E0809104050E94C11F9D
:1044500061E070E080E090E00E94432080910B05D5
:1044600090910C05009719F00E943A1B80C0C091F2
:104470000905D0910A051B8E1A8E198E188E1F8A77
:104480001E8A8DE991E09D8F8C8F9C85963108F076
:104490004EC02DEB30E03F8B2E8B2BE931E0398F76
:1044A000288F2CE231E03B8F2A8F309168009830C2
:1044B00058F021E09E3008F420E091E0892F01C0FF
:1044C000880F2A95EAF701C084E0832B8093680067
:1044D0009C85983038F09E3040F0963148F42CE6B8
:1044E00030E008C02DE630E005C02BE630E002C029
:1044F00020E030E03C8B2B8B983030F481E001C021
:10450000880F9A95EAF70EC0292F30E09E3018F4F4
:104510002850310902C02E50310981E001C0880FB6
:104520002A95EAF78D8B8C8D9D8D0197F1F78A8DF9
:104530009B8D892BE1F08091D8029091D902C81708
:10454000D907A9F0009711F00E94600E8E8D8E7F22
:104550008E8F1092D7021092D602D093D902C093B8
:10456000D802EB89FC8990818D89892B8083809189
:104570000605181644F461E00E94F01F61E0809186
:1045800006050E94C11FE0910705F0910805809182
:10459000C0049091C104A0E0B0E084839583A68319
:1045A000B783C5E06CE074E082EB94E00E94831C6A
:1045B000811125C0C150B1F762E370E080E090E066
:1045C0000E94432061E082EB94E00E94321962E392
:1045D00070E080E090E00E944320C5E068E074E075
:1045E00082EB94E00E94831C811109C0C150B1F795
:1045F00060E474E08CEB93E00E94CA1930C068EE6E
:1046000073E080E090E00E94432082EB94E00E94FF
:104610001C186CE374E08CEB93E00E94CA196CE206
:1046200071E080E090E00E94432060E174E082EB62
:1046300094E00E94831CC091BF04D091BE041092EC
:10464000BE046BE274E08CEB93E00E94CA19C111C6
:1046500007C061E082EB94E00E94321901C0FFCFF5
:1046600067E274E082EB94E00E94CA196091C00492
:104670007091C10482EB94E00E94271C892BE9F021
:1046800067E771E083EC94E00E94B13C892BA9F0CC
:104690006AE771E083EC94E00E94B13C892B69F0F9
:1046A00063EC74E08CEB93E00E94B51960E871E074
:1046B0008CEB93E00E94B519D9CFC11105C060E021
:1046C00082EB94E00E94321966E174E08CEB93E097
:1046D0000E94CA19D093BE046CE271E080E090E0C1
:1046E0000E94432061E086E00E94F01F60E086E0C7
:1046F0000E94C11FB8E22B2E312CC4E6D0E00E94EC
:104700007D200091340310913503209136033091C0
:104710003703DC01CB01801B910BA20BB30B813D56
:104720009740A105B10508F42BC4109230031092F4
:10473000310310923203109233030BE010E0109219
:104740002F0310922E03E0902E03F0902F034BE0E6
:10475000E416F10404F580E10E942C20BC01C7019D
:10476000880F991F880F991FFC01E055FA4F6F01C0
:10477000072E000C880B990B0E94D236F60160833D
:10478000718382839383FFEFEF1AFF0AF0922F0366
:10479000E0922E03D8CF8BE00E948E1E2091300332
:1047A0003091310340913203509133030E94B0386D
:1047B00060933003709331038093320390933303FB
:1047C0000150110909F0BBCF20E030E040E351E493
:1047D0000E941C396B017C0160933003709331039C
:1047E00080933203909333039B01AC0160E070E04F
:1047F00080E894E40E94AF389B01AC01C701B60188
:104800000E941C3920E038EE40E057E40E94313726
:1048100020E030E04AE754E40E941C390E94C93984
:104820006B017C0120E030E040E850E40E94213A36
:104830004B015C0120E030E040E450E4C701B601E8
:104840000E94213A2B013C012AE534E64BE95FE363
:10485000C501B4010E9431374B015C0123E938E105
:1048600048E151E4C301B2010E9431379B01AC0120
:10487000C501B4010E94AF384B015C01A70196014C
:10488000C701B6010E9431372CE53FE845E252E40A
:104890000E9431379B01AC01C501B4010E94B038C0
:1048A0004B015C012DEC3CEC48E353E4C701B6013D
:1048B0000E9431379B01AC01C501B4010E94AF38A1
:1048C00020E030E848EA53E40E94B0380E948E3974
:1048D00070931B0360931A031091070311110CC00E
:1048E000665F7F4F6935724040F18AE992E09093AC
:1048F0001B0380931A0321C01130F9F4605271092F
:10490000072E000C880B990B0E94D23620E030E075
:1049100040EA50E40E94313720E030E040E151E4C9
:104920000E941C390E948E3970931B0360931A03F6
:10493000665F7F4F61347140C0F610922A03109277
:104940002B0310922C0310922D03FBE0CF2ED12CC1
:1049500010922F0310922E03E0902E03F0902F035D
:104960004BE0E416F10404F581E10E942C20BC0127
:10497000C701880F991F880F991FFC01E055FA4F56
:104980005F01072E000C880B990B0E94D236F501AF
:104990006083718382839383FFEFEF1AFF0AF092A3
:1049A0002F03E0922E03D8CF8BE00E948E1E209121
:1049B0002A0330912B0340912C0350912D030E9428
:1049C000B03860932A0370932B0380932C03909349
:1049D0002D0321E0C21AD10809F0BACF20E030E05F
:1049E00040E351E40E941C396B017C0160932A036F
:1049F00070932B0380932C0390932D039B01AC01A8
:104A000060E070E080E894E40E94AF389B01AC0164
:104A1000C701B6010E941C3920E038EE40E057E49F
:104A20000E94313720E030E04AE754E40E941C390C
:104A30000E94C9396B017C0120E030E040E850E47D
:104A40000E94213A4B015C0120E030E040E450E458
:104A5000C701B6010E94213A2B013C012AE534E648
:104A60004BE95FE3C501B4010E9431374B015C01A2
:104A700023E938E148E151E4C301B2010E94313732
:104A80009B01AC01C501B4010E94AF384B015C0130
:104A9000A7019601C701B6010E9431372CE53FE816
:104AA00045E252E40E9431379B01AC01C501B401DB
:104AB0000E94B0384B015C012DEC3CEC48E353E420
:104AC000C701B6010E9431379B01AC01C501B40199
:104AD0000E94AF3820E030E848EA53E40E94B03842
:104AE0000E948E39709317036093160311110CC046
:104AF000665F7F4F6935724040F18AE992E090939A
:104B000017038093160321C01130F9F46052710924
:104B1000072E000C880B990B0E94D23620E030E063
:104B200040EA50E40E94313720E030E040E151E4B7
:104B30000E941C390E948E397093170360931603EC
:104B4000665F7F4F61347140C0F610922603109269
:104B5000270310922803109229035BE0C52ED12C65
:104B600010922F0310922E03E0902E03F0902F034B
:104B70008BE0E816F10404F58FE00E942C20BC01C4
:104B8000C701880F991F880F991FFC01E055FA4F44
:104B90005F01072E000C880B990B0E94D236F5019D
:104BA0006083718382839383FFEFEF1AFF0AF09291
:104BB0002F03E0922E03D8CF8BE00E948E1E20910F
:104BC00026033091270340912803509129030E9426
:104BD000B038609326037093270380932803909343
:104BE000290321E0C21AD10809F0BACF20E030E051
:104BF00040E351E40E941C396B017C016093260361
:104C00007093270380932803909329039B01AC01A1
:104C100060E070E080E894E40E94AF389B01AC0152
:104C2000C701B6010E941C3920E038EE40E057E48D
:104C30000E94313720E030E04AE754E40E941C39FA
:104C40000E94C9396B017C0120E030E040E850E46B
:104C50000E94213A4B015C0120E030E040E450E446
:104C6000C701B6010E94213A2B013C012AE534E636
:104C70004BE95FE3C501B4010E9431374B015C0190
:104C800023E938E148E151E4C301B2010E94313720
:104C90009B01AC01C501B4010E94AF384B015C011E
:104CA000A7019601C701B6010E9431372CE53FE804
:104CB00045E252E40E9431379B01AC01C501B401C9
:104CC0000E94B0384B015C012DEC3CEC48E353E40E
:104CD000C701B6010E9431379B01AC01C501B40187
:104CE0000E94AF3820E030E848EA53E40E94B03830
:104CF0000E948E39709313036093120311110CC03C
:104D0000665F7F4F6935724040F18AE992E0909387
:104D100013038093120321C01130F9F4605271091A
:104D2000072E000C880B990B0E94D23620E030E051
:104D300040EA50E40E94313720E030E040E151E4A5
:104D40000E941C390E948E397093130360931203E2
:104D5000665F7F4F61347140C0F60E947D20609392
:104D60003403709335038093360390933703C090D8
:104D70001A03D0901B03E0901603F09017030091E4
:104D80001203109113036AE175E082EB94E00E9434
:104D9000911961E070E082EB94E00E94E01D68E10F
:104DA00075E082EB94E00E949119C6010E94331FC6
:104DB0006BE075E082EB94E00E94911962E070E094
:104DC00082EB94E00E94E01D69E075E082EB94E0E4
:104DD0000E949119C7010E94331F6CEF74E082EBAF
:104DE00094E00E94911963E070E082EB94E00E94ED
:104DF000E01D6AEF74E082EB94E00E949119C80113
:104E00000E94331F6DEE74E082EB94E00E949119D2
:104E100064E070E082EB94E00E94E01D6BEE74E0D1
:104E200082EB94E00E9491198AE992E00E94331F7C
:104E30006EED74E082EB94E00E94911965E070E001
:104E400082EB94E00E94E01D6CED74E082EB94E054
:104E50000E94911980910A0390910B030E94331FC5
:104E60006FEC74E082EB94E00E94911966E070E0D0
:104E700082EB94E00E94E01D6DEC74E082EB94E024
:104E80000E94911980910C0390910D030E94331F91
:104E900060EC74E082EB94E00E94911967E070E0AE
:104EA00082EB94E00E94E01D6EEB74E082EB94E0F4
:104EB0000E94911980910503909106030E94331F6F
:104EC00061EB74E082EB94E00E94911968E070E07D
:104ED00082EB94E00E94E01D6FEA74E082EB94E0C4
:104EE0000E94911980916B0390916C030E94331F73
:104EF00062EA74E082EB94E00E94911969E070E04C
:104F000082EB94E00E94E01D60EA74E082EB94E0A2
:104F10000E94911980916D0390916E030E94331F3E
:104F200063E974E082EB94E00E9491196AE070E01A
:104F300082EB94E00E94E01D61E974E082EB94E072
:104F40000E94911980914503909146030E94331F5E
:104F500064E874E082EB94E00E9491196BE070E0E9
:104F600082EB94E00E94E01D62E874E082EB94E042
:104F70000E94911980914303909144030E94331F32
:104F80008091F6029091F702019709F087C0A091F5
:104F90004903B0914A0320E83EEE46E350E00E9408
:104FA00061386B017C01A0914703B091480320E672
:104FB0003AEE0E94703B46015701860E971EA81ECE
:104FC000B91E0E947D20C0903D03D0903E03E0902A
:104FD0003F03F0904003E0E7CE0EE7E1DE1EE11C68
:104FE000F11CC80CD91CEA1CFB1CC61AD70AE80A1B
:104FF000F90AC701B60120E83EEE46E350E00E9400
:10500000153849015A013093460320934503C701DF
:10501000B60128EE33E040E050E00E941538CA01A6
:10502000B90120E13EE040E050E00E9415382CE359
:1050300030E040E050E00E94153889019A01109359
:10504000440300934303EAE0F0E0C401BF010E947F
:10505000563B7093F5026093F4029093F3028093B1
:10506000F202C801BF010E94563B7093F1026093A7
:10507000F0029093EF028093EE02F0E6CF16FAEE84
:10508000DF06E104F10450F41092F7021092F602E8
:1050900087E090E090932503809324038091590446
:1050A0000E94981F182F80915B040E94981F880F00
:1050B000991F182B40915D04141731F124E042022E
:1050C000A0011124212F012E000C330B242B352B92
:1050D000F901EC5EFE4F208180915E0490915F04A7
:1050E000820F911D27FD9A9590935F0480935E0433
:1050F000133041F495958795959587959093610424
:105100008093600410935D04809160049091610429
:1051100020914B0330914C0328173907C1F090932D
:105120004C0380934B0380915E0490915F048370E5
:10513000992790935F0480935E041092610410920B
:10514000600481E090E090937203809371030E9469
:105150007D206B017C016093390370933A03809347
:105160003B0390933C03809162040E94981F8093BC
:10517000380390916404992329F091E0811190E023
:105180009093380380916C0490916D04A0916E040B
:10519000B0916F04B701A601481B590B6A0B7B0B3A
:1051A0008091700490917104A0917204B091730485
:1051B000481759076A077B0748F4C0926804D092E1
:1051C0006904E0926A04F0926B041EC09091650439
:1051D000909366048091380380936504C0926804BC
:1051E000D0926904E0926A04F0926B04981761F01F
:1051F000C0926C04D0926D04E0926E04F0926F0441
:1052000081E08093670402C010926704E091240358
:10521000F0912503E031F10508F0D2C6EC5CFF4FB8
:105220000C946A3B01E010E0109372030093710349
:105230000E94631E882399F120911A0330911B0369
:105240008091180390911903821793073CF48AE91F
:1052500092E09093190380931803B2C6209116032D
:1052600030911703809114039091150382179307CF
:105270003CF48AE992E09093150380931403A0C64E
:1052800062E871E084E794E00E94DE1910937203F3
:1052900000937103109325030093240391C60E9489
:1052A0006E1E882309F48CC689E090E00C94A53327
:1052B00020914B0330914C032F3F4FEF3407A1F463
:1052C00080910003909101030197909301038093D3
:1052D000000321E030E030937203209371030397C1
:1052E000DCF482E090E014C021303105A9F4809113
:1052F00000039091010301969093010380930003B2
:105300003093720320937103089734F088E090E0A3
:1053100090930103809300030E94631E882329F168
:105320008091000390910103A9C10E946E1E882301
:1053300061F081E090E0909372038093710388E0C4
:1053400090E0909325038093240380914B039091E8
:105350004C038F3F3FEF930709F4BEC0019709F458
:10536000C6C00E94631E8111D4C00E946E1E882395
:1053700009F426C681E090E0909372038093710354
:105380000C948F3380910703811129C080914B03C6
:1053900090914C038F3FEFEF9E0781F48091FE02C6
:1053A0009091FF0205979093FF028093FE02813A4D
:1053B00091050CF041C080EA90E03AC00197E1F518
:1053C0008091FE029091FF0205969093FF028093D8
:1053D000FE02823C914084F182EC91E029C0813050
:1053E00059F580914B0390914C038F3F2FEF92071B
:1053F00079F48091FE029091FF0202979093FF0250
:105400008093FE0287349105BCF486E490E010C0DE
:10541000019791F48091FE029091FF020296909381
:10542000FF028093FE02803F910534F080EF90E010
:105430009093FF028093FE020E946E1E882361F00B
:1054400081E090E0909372038093710388E090E094
:1054500090932503809324030E94631E882309F4FC
:10546000AFC583E090E090930D0380930C0388E038
:1054700090E090932503809324030091FE02109105
:10548000FF02109306030093050380916F03909130
:105490007003892B81F40E947D20609367037093D1
:1054A00068038093690390936A0381E090E090938E
:1054B000700380936F0310925C0310925B038091E2
:1054C0001A0390911B03081719070CF0B0C510922E
:1054D000500310924F0374C5809108039091090303
:1054E0000597853191055CF484E190E008C08091D6
:1054F0000803909109030596843691052CF4909346
:105500000903809308032DCFD0930903C0930803A8
:1055100028CF01E010E010930D0300930C0380915D
:105520006F0390917003892B09F0AAC30E947D201C
:1055300060936703709368038093690390936A0391
:105540001093700300936F039BC30E946E1E882309
:1055500061F081E090E0909372038093710388E0A2
:1055600090E0909325038093240380914B039091C6
:105570004C038F3F4FEF940769F48091FC029091A8
:10558000FD020197181619068CF01092FD02109278
:10559000FC0210C0019771F48091FC029091FD0211
:1055A00001968330910514F083E090E09093FD0222
:1055B0008093FC020E94631E882309F401C5809138
:1055C000FC029091FD02039789F48AE992E090939E
:1055D00019038093180390931503809314039093F9
:1055E00011038093100388E090E048C08DE090E0C4
:1055F00045C00E946E1E882361F081E090E0909388
:1056000072038093710388E090E090932503809368
:10561000240320914B0330914C032F3F8FEF380729
:1056200079F48091FA029091FB02019718161906FD
:1056300014F40C942B331092FB021092FA0211C056
:105640002130310571F48091FA029091FB020196AC
:105650001816190614F00C942B333093FB02209388
:10566000FA020E94631E882309F4AAC48091FA02F8
:105670009091FB02009769F48EE090E090932503EF
:105680008093240381E090E09093720380937103F0
:1056900097C48130910509F093C42FE030E04CC0ED
:1056A0000E946E1E882361F081E090E09093720367
:1056B0008093710388E090E0909325038093240306
:1056C00020914B0330914C032F3F9FEF390761F43A
:1056D0008091F8029091F902019797FF10C0109203
:1056E000F9021092F80214C02130310589F480913A
:1056F000F8029091F9020196181619062CF0909371
:10570000F9028093F80204C03093F9022093F80262
:105710000E94631E882309F453C48091F80290917B
:10572000F902009719F48BE090E0A8CF8130910541
:1057300009F046C42CE030E0309325032093240385
:10574000A3CF8091650481113BC48BC78091650410
:10575000811136C4E7C70E947D2060936303709374
:105760006403809365039093660381E090E09093D7
:1057700072038093710380910C0390910D03009745
:1057800041F0909342038093410310920D031092D5
:105790000C0380916504811113C4D5C70E947D203C
:1057A00000916303109164032091650330916603B7
:1057B000DC01CB01801B910BA20BB30B8D3B924004
:1057C000A105B10510F18091E2029091E3028130D0
:1057D000910529F41092E3021092E20208C0892B8D
:1057E00051F481E090E09093E3028093E202909381
:1057F0007203809371030E947D2060936303709312
:105800006403809365039093660380916504882305
:1058100009F4D6C380916704882309F4D1C39AC7D9
:105820000E946E1E882361F081E090E090937203E5
:105830008093710388E090E0909325038093240384
:1058400080910C0390910D03892B09F496C78091E8
:10585000E4029091E502009709F048C020914B03C3
:1058600030914C038091490390914A032F3FFFEF01
:105870003F0761F4019790934A038093490397FF90
:1058800015C010924A031092490310C0213031050F
:1058900069F4019690934A0380934903C39734F0C7
:1058A00022E330E030934A03209349038091490377
:1058B00090914A036AE070E00E94563B7093ED02BB
:1058C0006093EC029093EB028093EA020E94631EC5
:1058D000882309F475C381E090E09093720380936C
:1058E00071039093E5028093E4026AC3019709F083
:1058F00067C320914B0330914C03809147039091F3
:1059000048032F3F4FEF340771F4059790934803F6
:105910008093470397FF15C087E390E09093480377
:10592000809347030EC02130310559F405969093BA
:10593000480380934703CC9724F0109248031092B9
:10594000470380914703909148036AE070E00E940A
:10595000563B7093E9026093E8029093E7028093CC
:10596000E60280916504882309F42AC31092E502B7
:105970001092E40281E090E09093700380936F03B3
:105980009093F7028093F6020E947D2060933D037E
:1059900070933E0380933F0390934003C0C61092E0
:1059A000F7021092F60210924A03109249031092E5
:1059B0004803109247031092E5021092E402AFC62A
:1059C00080910703811193C08091FC029091FD02A8
:1059D000009769F580914B0390914C038F3FEFEF57
:1059E0009E0791F48091E0029091E10205979093D7
:1059F000E1028093E002853691050CF011C1D0934D
:105A0000E102C093E0020CC1019709F009C1809145
:105A1000E0029091E10205969093E1028093E0020A
:105A2000803991400CF4FCC080E991E094C0813051
:105A3000910569F580914B0390914C038F3F2FEFB7
:105A4000920791F48091DE029091DF020597909386
:105A5000DF028093DE02853691050CF0E1C0D09321
:105A6000DF02C093DE02DCC0019709F0D9C080914B
:105A7000DE029091DF0205969093DF028093DE02B2
:105A8000803991400CF4CCC080E991E096C0029737
:105A900009F0C6C080914B0390914C038F3F4FEFAC
:105AA000940791F48091DC029091DD020597909328
:105AB000DD028093DC02853691050CF0B1C0D093F5
:105AC000DD02C093DC02ACC0019709F0A9C080914F
:105AD000DC029091DD0205969093DD028093DC025A
